:0400000081EF00F09C
:10000800B609B609B609B6094000B6094000B609EE
:10001800B609B609B609B609B609B609B609B609E0
:10002800B609400040004000B609B609B609B6094D
:10003800B609B609B609B609B609B609B6098E09E8
:10004800B609B609B609B60940004000B609B609AE
:10005800B609B609B6094000B609B609B609B6091F
:10006800B609B609B609B609B609B609B609B60990
:10007800B609B609B609B6094000B609B609B609FF
:10008800B609B609B609B609B609B609B609B60970
:10009800B609B609B609B6094000B60940004000DD
:1000A800B609B609B609B609B609B609B609B60950
:1000B800B609B609B609B609B609B609B609B60940
:1000C800B609B609B609B609B609B609B609B60930
:1000D800B609B609B609B609B609B609B609B60920
:1000E8004000B609B609B60940004000400040008B
:0E00F800B609B609B609B609FF0045EF13F0C8
:1026000000000001AD518F0B6009AD6FF00EAD17EA
:10261000B06B080EB16FB38DB38BB2AD12EF13F088
:1026200014EF13F00DEF13F0B2AB19EF13F01BEF33
:1026300013F014EF13F01200B19E010E0526000EE8
:102640000622072208220150021003100410D8B4F9
:102650002CEF13F02EEF13F033EF13F00106000E02
:10266000025A035A045A110003011B511F0B40095F
:102670001B6F1B51F00B04091B6F1A51F00B030960
:102680001A6FFA0E196F1A8F120001EE01F1080E7F
:10269000EE6AE806FDE10401080E5D6F000E5E6F54
:1026A000000E5F6F00015EEF13F001EC13F06AECB7
:1026B00013F034EC13F064EC13F0120055EC13F04B
:1026C00060EF13F081EF00F0D69ED68AA18ED68CF3
:0626D000D68E120012007C
:0226D8001100EF
:020000040030CA
:080000008ADDEFEF9FFFFFFF17
:01000900FFF7
:00000001FF
