:0400000081EF00F09C
:1000080040004000400040004000400040004000E8
:1000180040004000400040004000400040004000D8
:1000280040004000400040004000400040004000C8
:10003800400040004000400040004000400081096E
:1000480040004000400040004000400040004000A8
:100058004000400040004000400040004000400098
:100068004000400040004000400040004000400088
:100078004000400040004000400040004000400078
:100088004000400040004000400040004000400068
:100098004000400040004000400040004000400058
:1000A8004000400040004000400040004000400048
:1000B8004000400040004000400040004000400038
:1000C8004000400040004000400040004000400028
:1000D8004000400040004000400040004000400018
:1000E8004000400040004000400040004000400008
:0E00F8004000400040004000FF003EEF13F0CB
:022600000000D8
:10260400B19E010E0526000E062207220822015063
:10261400021003100410D8B412EF13F014EF13F0E7
:1026240019EF13F00106000E025A035A045A11005E
:102634000001AD518F0B6009AD6FF00EAD17B06B9B
:10264400080EB16FB38DB2AD2AEF13F02CEF13F077
:1026540025EF13F0120003011B511F0B40091B6FE0
:102664001B51F00B04091B6F1A51F00B03091A6F6D
:10267400FA0E196F1A8F120001EE01F1080EEE6ABC
:10268400E806FDE10401080E5D6F000E5E6F000EAA
:102694005F6F000157EF13F01AEC13F060EC13F0C6
:1026A4002DEC13F05DEC13F012004EEC13F059EF27
:0E26B40013F081EF00F0A18ED68E12001200FE
:020000040030CA
:080000008ADDFFEF9FFFFFFF07
:01000900FFF7
:00000001FF
