:040000000DEF00F010
:0400080021EF13F0E1
:06001800FF0001EF13F0F0
:102600000000120EF66E280EF76E000EF86E01EE48
:1026100001F110EE0DF00900F5C4EEF4E550E150C3
:10262000FAE101EE0EF1080EEE6AE806FDE10401A2
:10263000080E5D6F000E5E6F000E5F6F000175EF9C
:1026400013F0B1AE26EF13F028EF13F03FEF13F0C5
:10265000B19E010E1226000E1322142215220E50D6
:102660000F1010101110D8B438EF13F03AEF13F028
:102670003FEF13F00E06000E0F5A105A115A1100B8
:10268000000E1C6E000E1B6E51EF13F01B50172432
:10269000D96E1C501820DA6EDF505DEC13F01B4A27
:1026A0001C2A19501B5C1A501C58D8A05AEF13F062
:1026B0005CEF13F046EF13F01200166E0201FEAF4E
:1026C00064EF13F066EF13F05EEF13F0C8906984C7
:1026D000698E16C5EFF2FEAF70EF13F072EF13F0D4
:1026E0006BEF13F0C880699E1200E7EC13F0010E47
:1026F000176E050E186E000E1A6E0C0E196E40EC59
:1027000013F00B0E176EB80E166EC4EC13F077EFC5
:1027100013F00DEF00F01F0E606E020E616E060EDC
:10272000646E810E636E060E6C6E820E6B6E060E0C
:102730006E6E820E6D6EF80E6A1612000001AD51BB
:102740008F0B6009AD6FF00EAD17B06B080EB16F57
:10275000B38DB2ADAEEF13F0B0EF13F0A9EF13F0FD
:1027600012000001D56BD651F80B0109D66FD79F27
:10277000420ED86F7F0ED96F020EDC6FDD6B080E34
:10278000DE6FDF6BD68F120016C50EF517C50FF57D
:10279000106A116A0E500F1010101110D8A4D3EF48
:1027A00013F0D5EF13F0CAEF13F0120003011B5121
:1027B0001F0B40091B6F1B51F00B04091B6F1A51B3
:1027C000F00B03091A6FFA0E196F1A8F12009EECA4
:1027D00013F002EC14F0D6EC13F0F6EC13F08BECE3
:1027E00013F0B1EC13F010EC14F01200010E020122
:1027F000FB6FA00EFA6FF79FF78BF00EF717F995A6
:10280000F88F120004011091C880010E0201116FAF
:0F281000120048656C6C6F20776F726C6400006B
:0A282000D69EA18EB19ED68E120046
:020000040030CA
:080000008AFD27FF9FFFFFFFAF
:01000900FFF7
:00000001FF
