:040000000DEF00F010
:0400080001EF13F001
:06001800FF00C5EF13F02C
:102600000000B1AE06EF13F008EF13F021EF13F066
:10261000B19E010E0526000E062207220822015057
:10262000021003100410D8B418EF13F01AEF13F0CF
:102630002BEF13F00106000E025A035A045A2BEF37
:1026400013F0BBA026EF13F028EF13F02BEF13F0DD
:10265000BB90EDC209F51100020E0001D56FF80E16
:10266000D617D79F340ED86F080ED96F2A0EDA6F9F
:10267000020EDC6F080EDD6F080EDE6F200EDF6FBE
:10268000D68F12000AC501F50BC502F50CC503F57E
:102690000DC504F50150021003100410D8A453EF27
:1026A00013F055EF13F04AEF13F0120069EC13F03A
:1026B000000000000000640E0A6E000E0B6E000E9B
:1026C0000C6E000E0D6E42EC13F058EF13F00DEF90
:1026D00000F07CEC13F0EDEC13F0B4EC13F0A2EC92
:1026E00013F08FEC13F02CEC13F0E2EC13F0D5ECBC
:1026F00013F0F8EC13F012000001AD518F0B6009DC
:10270000AD6FF00EAD17B06B080EB16FB38DB2ADFB
:102710008CEF13F08EEF13F087EF13F01200010E21
:102720000001D56FD651F80B0109D66FD79FD96B31
:10273000330ED86F020EDC6FDD6B080EDE6FDF6BC1
:10274000D68F12000001D56BD651F80B0409D66F55
:10275000D79FD96B2A0ED86F020EDC6F080EDD6F83
:10276000DE6BDF6BD68F120003011B511F0B40097C
:102770001B6F1B51F00B04091B6F1A51F00B03095F
:102780001A6FFA0E196F1A8F120001EE01F1090E7D
:10279000EE6AE806FDE10401080E5D6F000E5E6F53
:1027A000000E5F6F000156EF13F0010E0201FB6F88
:1027B000A00EFA6FF79FF789F00EF717F99DFC83CB
:1027C000F88F1200040146814689E00E47134751F5
:1027D000E00B1509476F468F120004011097C88659
:1027E000009BC68A130E0201616F050E7A6F1200FC
:0A27F000A18EB19EAB80D68E1200C0
:020000040030CA
:080000008AFD27FF9FFFFFFFAF
:01000900FFF7
:00000001FF
