:040000008031222801
:100008007E1480314E018C1E0A280B2820288C1261
:100018000130F4070030F53DF63DF73D73087204F2
:1000280071047004031919281A2820280130F002D5
:100038000030F13BF23BF33B7E100900803124286D
:10004800F001F101F201F301F401F501F601F70104
:100058007E10400180313F2851010D088F396038EA
:100068008D00F0308D05063093001117101F3D28C4
:100078003E283A28080080314520803142288031C6
:0A008800222880313020803108006A
:020000040001F9
:0A000E008A1F3E279F3FFF3FFF3F80
:00000001FF
